:020000040000FA
:10C000003DB8F3960000000000080000A4BC070043
:10C010000000000002090000000000000000000015
:10C02000FFFFFFFFFFFFFFFFFFFFFFFFFFFFFFFF20
:10C03000FFFFFFFFFFFFFFFFFFFFFFFFFFFFFFFF10
:10C04000FFFFFFFFFFFFFFFFFFFFFFFFFFFFFFFF00
:10C05000FFFFFFFFFFFFFFFFFFFFFFFFFFFFFFFFF0
:10C80000B07A0120B15F0300C36406009D5F03009E
:10C810009D5F03009D5F03009D5F03009D5F03001C
:10C82000000000000000000000000000996103000B
:10C830009D5F030000000000596103009D5F03003D
:10C84000AD630300AD630300AD630300AD6303009C
:10C85000AD630300AD630300AD630300AD6303008C
:10C86000AD630300AD630300AD630300AD6303007C
:10C87000AD630300AD630300AD630300AD6303006C
:10CA5000AD630300C3C60600AD630300AD6303000E
:10CA6000AD630300AD6303007D650600AD630300A5
:10CA7000AD630300AD630300AD630300AD6303006A
:10CA8000AD630300AD630300AD630300AD6303005A
:10CA9000AD630300AD630300AD630300AD6303004A
:10CAA000AD630300AD630300AD630300AD6303003A
:10CAB000AD630300AD630300AD630300AD6303002A
:10CAC000AD630300AD630300AD630300AD6303001A
:10CAD000AD630300AD630300AD630300AD6303000A
:10CAE000AD630300AD630300AD630300AD630300FA
:10CAF000AD630300AD630300AD630300AD630300EA
:10CB0000AD630300AD630300AD630300AD630300D9
:10CB1000AD630300AD630300AD630300AD630300C9
:10CB2000AD630300AD630300AD630300AD630300B9
:10CB3000AD630300AD630300AD630300AD630300A9
:10CB4000AD630300AD630300AD630300AD63030099
:10CB5000AD630300AD630300AD630300AD63030089
:10CB6000AD630300AD630300AD630300AD63030079
:10CB7000AD630300AD630300AD630300AD63030069
:10CB8000AD630300AD630300AD630300AD63030059
:10CB9000AD630300AD630300AD630300AD63030049
:10CBA000AD630300AD630300AD630300AD63030039
:10CBB000AD630300AD630300AD630300AD63030029
:10CBC000AD630300AD630300AD630300AD63030019
:10CBD000AD6303007D650600AD630300AD63030034
:10CBE000AD630300AD630300AD630300AD630300F9
:10CBF000AD630300AD630300AD630300AD630300E9
:10CC0000AD630300AD630300AD630300AD630300D8
:10CC1000AD630300AD630300AD630300AD630300C8
:10CC2000AD630300AD630300AD630300AD630300B8
:10CC3000AD630300AD630300AD630300AD630300A8
:10CC4000AD630300AD630300AD630300AD63030098
:10CC5000AD630300AD630300AD630300AD63030088
:10CC6000AD630300AD630300AD630300AD63030078
:10CC7000AD630300AD630300AD630300FFFFFFFF7F
:10CC80002DE9F00791E8F807B2E802105B1854EBC1
:10CC90000C04B2E802104D4156EB0C06B2E802104B
:10CCA0004F4158EB0C08B2E8021059EB01095AEB5E
:10CCB0000C0A80E8F80780410130BDE8F0077047B2
:10CCC0002DE9F00791E8F807B2E802105B1A74EB5F
:10CCD0000C04B2E802108D4176EB0C06B2E80210AB
:10CCE0008F4178EB0C08B2E8021079EB01097AEB7E
:10CCF0000C0A80E8F80780414042BDE8F007704721
:10CD00002DE9F007524290E87800B1E8800717401B
:10CD1000DB1918EA020854EB080419EA020955EB7A
:10CD200009051AEA020A56EB0A0678C090E878006C
:10CD3000B1E8800717407B4118EA020854EB080469
:10CD400019EA020955EB09051AEA020A56EB0A0626
:10CD500078C080410130BDE8F00770472DE9F00749
:10CD6000524290E87800B1E880071740DB1B18EAD0
:10CD7000020874EB080419EA020975EB09051AEABE
:10CD8000020A76EB0A0678C090E87800B1E88007DE
:10CD90001740BB4118EA020874EB080419EA0209BB
:10CDA00075EB09051AEA020A76EB0A0678C080419B
:10CDB0004042BDE8F00770472DE9F00152424FF0C4
:10CDC000040890E8300091E8C000A31B1340E41A67
:10CDD000F618EB1B1340ED1AFF1830C0C0C1B8F1B4
:10CDE0000108EED1BDE8F001704700BF00B592E840
:10CDF000DC072DE9DC07B1E8805702B4A7FB02513C
:10CE00000A95A8FB020BE7FB6310E9FB62B00B91EC
:10CE1000A8FB0351EAFB6201E7FB64B5E7FB66058B
:10CE2000E8FB6615CDF830B0A9FB03B6EAFB631644
:10CE3000ECFB6356E8FB640BE9FB641BEAFB645BF9
:10CE4000ECFB646B0D90ACFB0230059CEEFB62507A
:10CE5000E9FB6460EAFB64B0E7FB6431E8FB645122
:10CE6000069CE8FB6461E9FB64B1EAFB64010E9394
:10CE7000A7FB0432079CE7FB6462E8FB64B2E9FBB2
:10CE80006402EAFB6412049CE9FB6453EAFB6463FA
:10CE9000089CE7FB64B3E8FB6403E9FB6413EAFB6B
:10CEA00064230F955DF8049B99E80006DDF8008087
:10CEB000A9FB0854EAFB68B4DDF81080ECFB6804B9
:10CEC000EEFB6814E9FB6824EAFB6834DDF80480B3
:10CED000EEFB6865E9FB68B5EAFB6805DDF81480E0
:10CEE000ECFB6815EEFB6825E9FB6835EAFB684555
:10CEF0000F96DDF80880AEFB0876E9FB6806EAFBD2
:10CF00006816DDF81880ECFB6826EEFB6836E9FB56
:10CF10006846EAFB6856DDF80C80ECFB68B7EEFB70
:10CF20006807E9FB6817EAFB6827DDF81C80ECFB63
:10CF30006837EEFB6847E9FB6857EAFB686708B0AB
:10CF400000BD00BF2DE9F14F87B0FFF74FFFDDF8BF
:10CF50001C8008F1200888E8FF00FFBC87E87F08F4
:10CF6000BDE8F08F00B591E89857A3FB03520195F7
:10CF7000A3FB0401E3FB6420E3FB67100292A3FB25
:10CF80000752E3FB6802E4FB6415E3FB6805E3FB7F
:10CF900069250391A4FB07B6E3FB6926E3FB6A5608
:10CFA000E4FB670BE4FB682BE3FB6A5BE3FB6C6B66
:10CFB0000490A4FB0810E4FB6950E3FB6C60E3FB06
:10CFC0006EB0E7FB6721E4FB6951E4FB6A61E3FBB8
:10CFD0006EB1E4FB6E010592A7FB0832E4FB6A62C6
:10CFE000E4FB6CB2E4FB6E02E7FB6E12E7FB6853F6
:10CFF000E7FB6963E4FB6CB3E7FB6C03E7FB6E13D1
:10D00000E8FB6E230695A7FB0954E7FB6AB4E7FB30
:10D010006C04E8FB6C14E8FB6E24E9FB6E34E8FB5F
:10D020006865E7FB6AB5E8FB6A05E8FB6C15E9FB98
:10D030006C25E9FB6E35EAFB6E450796A8FB097681
:10D04000E8FB6A06E9FB6A16E9FB6C26EAFB6C362C
:10D05000EAFB6E46ECFB6E56E8FB69B7E9FB690735
:10D06000E9FB6A17EAFB6A27EAFB6C37ECFB6C47C3
:10D07000ECFB6E57EEFB6E6700BD00BF2DE9F14F74
:10D0800087B0FFF76FFFDDF81C8008F1200888E803
:10D09000FF00FFBC87E87F08BDE8F08F30B44FF099
:10D0A000000310F8014B11F8015B013A84EA050412
:10D0B00043EA0403F5D1A3F101034FEAD37030BC76
:10D0C000704700BF4FF0000310F8012B013943EA0D
:10D0D0000203F9D1A3F101034FEAD370704700BFF7
:10D0E00030B411F8014B12F8015B6C4000F8014BB1
:10D0F000013BF6D130BC70472DE9F00791E8F80705
:10D10000B2E802105B1854EB0C04B2E802104D4177
:10D1100056EB0C06B2E802104F4158EB0C08B2E88F
:10D12000021059EB01095AEB0C0A8941B3F1FF33A4
:10D1300074F1FF3475F1FF3576F1000677F10007E1
:10D1400078F1000879F101097AF1FF3A51F1000113
:10D150005B184C414D4156F1000657F1000758F15C
:10D16000000859EBD1795AEB010A80E8F807BDE8CD
:10D17000F00770472DE9F00791E8F807B2E80210D0
:10D180005B1A74EB0C04B2E802108D4176EB0C06CE
:10D19000B2E802108F4178EB0C08B2E8021079EB8C
:10D1A00001097AEB0C0A89415B184C414D4156F15B
:10D1B000000657F1000758F1000859EBD1795AEBF6
:10D1C000010A80E8F807BDE8F007704718EB04088B
:10D1D00059EB05095AEB060A5BEB070B5FF0000CF5
:10D1E0004CF1000C18EB050859EB06095AEB070A3D
:10D1F0005BEB070B50EB0C005FF0000C51EB0C01EC
:10D2000052EB0C0263414CF1000CB8EB070879F1CA
:10D2100000097AF1000A7BEB040BA841B141A2415D
:10D22000B3416CF1000CBBEB050BB041B941AA4115
:10D23000BB416CF1000C4CF001068CF0020718EBBE
:10D24000060859EB6C095AEB6C0A7BEB6C0B70EB24
:10D250006C0471EB6C0572EB670653EB6C076CEBBF
:10D260006C0C18EB0C0059EB0C015AEB0C025BF147
:10D27000000354F1000455F1000556EBDC7657EB42
:10D280000C0770472DE9F14F87B0FFF7AFFDDDF8D0
:10D290001080DDF81490DDF818A0FFF797FFBDE8C7
:10D2A000000FFFF793FF03B05DF8048B88E8FF00E1
:10D2B000BDE8F08F2DE9F14F87B0FFF753FEDDF8A1
:10D2C0001080DDF81490DDF818A0FFF77FFFBDE8AF
:10D2D000000FFFF77BFF03B05DF8048B88E8FF00C9
:10D2E000BDE8F08F064A074BDB7802604FF44272CC
:10D2F000C37100238280082203728271704700BFCD
:10D30000E9D00100505C0020064A074B1B790260FF
:10D310004FF4B872C371FF238280082203728271B6
:10D32000704700BF81CC0100505C00202DE9F34123
:10D33000C41D0028064624F007040CBF0020204628
:10D3400000F0B8FD071E04DA6FF00B0002B0BDE874
:10D35000F0810EB9FC42F7D4354D297AE879AB7AE1
:10D3600003316A7A03300CF0A6FB0028ECDB3C4466
:10D37000A978EB78002E04F10304194424F0030487
:10D3800000FB01F10CBF0020204600F03DFF2044CF
:10D390000EB90028D8DB2B790446B3B1697C194457
:10D3A0006B791944FF29CFDC0330002EAA89C9B25A
:10D3B00020F003040CBF0020204600F095FF002859
:10D3C000C2DB04440EB9002CBEDB012000F068FD76
:10D3D000C8B1E97AB9B195F828300734002B24F0A8
:10D3E000070415BF402325234FF481722822002E05
:10D3F00014BF2046002002F02FFD0028A4DB0444C7
:10D400000EB9002CA0DBAB7BDBB12B7993B10734D9
:10D41000002EA97B24F007040CBF0020204605F055
:10D42000A7F9002890DB04445EB9002C09DA8BE7E9
:10D43000505C0020012000F033FD10B1EB7A002B8E
:10D44000E5D1714B1B6893B1A97981B10334002EEA
:10D45000EA7B24F003040CBF0020204698470028F4
:10D46000FFF672AF044416B9002CFFF66DAF674BA0
:10D470001B688BB1297C79B10334002E24F003049E
:10D480000CBF0020204698470028FFF65DAF0444FB
:10D4900016B9002CFFF658AF5D4B1F68B7B1697C19
:10D4A000A1B10334002E2B7D24F0030408BF00201B
:10D4B000009318BF2046EB7CAA7CB8470028FFF6F3
:10D4C00043AF044416B9002CFFF63EAF072000F02E
:10D4D000E7FC98B1A97989B10334002EAA7D24F024
:10D4E00003040CBF0020204600F0ECFF0028FFF6EC
:10D4F0002BAF044416B9002CFFF626AFB6FA86F718
:10D5000095F821007F09A0B10334EB7E297E24F039
:10D51000070419443B4644F00404C9B2224601F012
:10D5200013F80028FFF610AF044416B9002CFFF6DC
:10D530000BAF95F82210002957D00734002EAA8C83
:10D5400024F007080CBF002040460CF0C9FA041E66
:10D55000FFF6FAAE444416B9002CFFF6F5AE1EB144
:10D56000A98C404608F052FF297F00293FD095F84A
:10D570002030002B3BD0EA8B0734002E24F0070824
:10D5800002F124020CBF0020404692B20CF0A8FA2F
:10D59000041EFFF6D9AE444416B9002CFFF6D4AEF3
:10D5A0000334AB7E297E24F0070495F8200019444B
:10D5B0003B4644F00404C9B2224600F0B7FF0028FD
:10D5C000FFF6C2AE044416B9002CFFF6BDAE36B16C
:10D5D000EA8B4046297F083292B208F01DFFEB6AC1
:10D5E0005BB176B1EC620020B0E68846B7E7002E6A
:10D5F000F5D0002211461046EFE7002EF3D1204669
:10D60000A4E62834FBD59FE65C410020644100205D
:10D61000604100201FB572B6194B1D6BE5B9BFF311
:10D620004F8F1849184BCA6802F4E0621343CB606D
:10D63000BFF34F8F00BFFDE7B4FBF6F4D3B2013266
:10D64000002CF9D103F110026A4402F80C4C0A22B2
:10D6500033B901A8A847E2E7044600220A26EDE70D
:10D66000013BDBB203F110040DEB0406B0FBF2F456
:10D6700002FB1400303006F80C0C2046E8E700BF2F
:10D68000505C002000ED00E00400FA0513B5114CD9
:10D690006846A37A8DF80130637A8DF80030237ADA
:10D6A000ADF80430E379ADF8023003F06DF918B14C
:10D6B000D9210320FFF7AEFF207D03F095F908B1D3
:10D6C000DC21F6E7E07C03F089F908B1DD21F0E721
:10D6D00002B010BD505C002038B5054600284AD085
:10D6E0000AF0BCFE18B94FF0FF34204638BD0FF0E9
:10D6F00009FEB0F5FA7FF6D8204C214825630025B5
:10D7000000F0A6FA26222946A01C84F83450257081
:10D7100084F82850E56210F012FA40F2011301215A
:10D720002A4663801B2308462171E37140F21B33B4
:10D73000A175238140F2023363811F23A3814FF43B
:10D740000273E38144F601136382F723E383FB232F
:10D75000A38402F0E1FB044620B140F249310320EA
:10D76000FFF758FFEFF3108572B600F0FDFE002DB5
:10D77000BBD162B6B9E76FF01504B6E7505C002084
:10D780008DD6000038B51446002840F0C280624DA6
:10D7900095F83430032B00F0B980B9B112B96FF0AD
:10D7A000150038BD0139162900F2B380DFE801F019
:10D7B0000C1D20305A63813666697B3C4250558788
:10D7C0008A989B9E90A1A5001378AB700020FFF76C
:10D7D000ADFD0028B7BF012302236FF00B0085F8D1
:10D7E0003430A8BF85F83430DBE71378EB70EDE711
:10D7F0009378002BD3D0D378002BD0D013781A2B6A
:10D80000CDD953781A2BCAD91368C5F80730DDE78C
:10D8100013786A799342C2D32B71D7E713782A79A8
:10D820009342BCD86B71D1E713782A799342B6D86A
:10D830006B74CBE71378002BB1D05378013BDBB28C
:10D84000F82BACD8138892786B82344B9A70BDE772
:10D850001078687507F0B8FAB8E71378002B9ED0F7
:10D86000AB75B3E7012000F01BFB237808B1012B57
:10D8700095D9EB72AAE71388AB81A7E71378AB7150
:10D88000A4E7072000F00CFB10B92378012B86D900
:10D89000072000F005FB18B12378002B3FF47FAF81
:10D8A0002378EB7392E71378082B3FF678AF2B744D
:10D8B0008CE71388FF2B3FF672AFAB7386E71378C4
:10D8C000EB7583E713780E2B3FF669AF2B767DE778
:10D8D0002368134AEB61636853602389138175E7FA
:10D8E00013786B7672E71378EB766FE71378AB7685
:10D8F0006CE7137885F8263068E7927861782078AD
:10D9000002F00AFB00283FF461AF4AE74FF0FF3016
:10D9100047E76FF02C0044E7505C0020625C002079
:10D920006C5C002070B50C46054600283BD00029F1
:10D9300039D04B0737D11D4E96F83430012B02D128
:10D940006FF00B0070BD032B02D14FF0FF30F9E7F1
:10D9500000F0B2F80028F8D02046FFF7E7FC0028D6
:10D96000EEDB134BD3F8A828B2F1004F0ED1114AC9
:10D97000C3F8A828104AC3F8AC28104AC3F8B02846
:10D980000F4AC3F8B4280F4AC3F8B8280FF03CFC7C
:10D990002846F16A03F09CF8FFF778FE0323002085
:10D9A00086F83430CEE76FF01500CBE7505C0020EE
:10D9B00000A008505F00500308001C000400540140
:10D9C0001FAAF8000700D00010B5084C94F83430B6
:10D9D000032B05D103F098F808F00EFD03F0D4FFF7
:10D9E0000CF0A7F9002084F8340010BD505C002032
:10D9F00050B1074B03F1140253F8041B934240F853
:10DA0000041BF9D1002070476FF01500704700BF6C
:10DA1000DA610800074B10B593F834403CB903F0C5
:10DA200021F80320044900F033FA204610BD4FF0DE
:10DA3000FF30FBE7505C002009D30000074B10B516
:10DA400093F834403CB903F021F80220044900F077
:10DA50001FFA204610BD4FF0FF30FBE7505C00205E
:10DA6000E5D20000054B10B593F834401CB90DF019
:10DA700041FB204610BD4FF0FF30FBE7505C00201B
:10DA8000054B10B593F834401CB90DF036FB204619
:10DA900010BD4FF0FF30FBE7505C00200268002013
:10DAA000014B1A60704700BF885C0020014B1B6867
:10DAB000184700BF885C0020024B1868003818BF68
:10DAC00001207047885C0020F7B504462D4E071DE5
:10DAD0002C48376003F070FF0228054606D129491B
:10DAE00020460BF0B0F9284603B0F0BD042842D11F
:10DAF0003378092B0AD0252B1ED0314620460BF057
:10DB00001CFAB0F5817F2DD3722112E005213E2051
:10DB10000BF06CF90028F0D1F37801A9327968464E
:10DB200043EA0223ADF800300BF0A5FD0028CFD06A
:10DB300053210820FFF76EFD1A213E200BF056F905
:10DB40000028DAD17368694601A8C3F30F23ADF842
:10DB5000043011238DF806300BF0A7FD0028B7D054
:10DB60006521E6E70028B3D0A17820780BF03EF9D4
:10DB70000028B8D1ACE70828B5D1024920460BF0FF
:10DB80009AF9B0E78C5C0020074B4FF0FF3141F66B
:10DB9000FF72C3E9001205490022C1E900221F21DA
:10DBA000C3E90212704700BF00410020905D0020D1
:10DBB0003F280CD801380B4BC0F3421200F01F0075
:10DBC00053F8223023FA00F000F001007047FF28DC
:10DBD00006D04038044BC0F3421200F01F00EFE7BC
:10DBE0000120704700410020905D0020074B014656
:10DBF000006849681A4603C240F48C221A6041F05A
:10DC0000107242F4FF625A60704700BF004100206A
:10DC10000246024B0068516803C37047905D0020C4
:10DC20000246024B0068516803C370470841002058
:10DC30000138064BC0F3421200F01F0003EB8203D1
:10DC40009B6823FA00F000F00100704700410020BB
:10DC5000014B1860704700BF985D002010B5FFF7BA
:10DC600093FF0CF01AFD034B04461B6803B1984761
:10DC7000204610BD985D002038B5274B0446D3F8E8
:10DC8000A023D3F8A413013106D1D3F8A8334FF65B
:10DC9000FF719BB28B423DD0D3073BD51E4DD5F8CB
:10DCA000A423D5F8A833C4F80120A4F80530C3F3A1
:10DCB000072363F03F03A371D5F89033013323D0DA
:10DCC000D5F8943301331FD0D5F8983301331BD0E6
:10DCD000D5F89C33013317D0002003F07BF898B9B6
:10DCE000D5F89003D5F89413D5F89823D5F89C333C
:10DCF000C4F80700C4F80B10C4F80F20C4F81330A0
:10DD000001230020237038BD10220021E01D0FF0F8
:10DD100016FFF5E70023F4E700C0FF0070B5274DBC
:10DD2000102200210446D5F8A0630FF008FF10224E
:10DD30000021A0180FF003FFD5F8803301330BD179
:10DD4000D5F88433013307D1D5F88833013303D1B3
:10DD5000D5F88C3301330BD0D5F88003D5F8841374
:10DD6000D5F88823D5F88C3320616161A261E36125
:10DD7000002003F02FF808B9F3071CD40F4BD3F899
:10DD8000902301320BD1D3F89423013207D1D3F879
:10DD90009823013203D1D3F89C2301320BD0D3F85E
:10DDA0009003D3F89413D3F89823D3F89C332060CE
:10DDB0006160A260E360002070BD00BF00C0FF0092
:10DDC00070B50C88C27CA6B2C4F30E04931C0588FF
:10DDD00004F114021D44825AADB21A4443882A4405
:10DDE000013AB2FBF5F202FB054292B29342044BB8
:10DDF0008BBF3340B34313439BB20B8070BD00BF56
:10DE00000080FFFF4A1E062A08B50346084604D8CC
:10DE10004FF4D1711520FFF7FDFB094A914202D959
:10DE200040F2A311F6E711B903B1196008BD2BB197
:10DE30001B680022C3E901211A1D1A600430F5E7AE
:10DE4000FAFFFF7F10B5114B00EB41041A7863898C
:10DE5000B3FBF2F303FB0223013A1A44B2F5706FED
:10DE6000027928BF00231A448378B2FBF3F01944E7
:10DE700003FB1020091AB1FBF3F003FB101313444A
:10DE80006FEA43436FEA5343638110BD9C5D0020FA
:10DE9000024B03EB80035960704700BF9C5D00207C
:10DEA000034B03EB80035868003818BF012070470C
:10DEB0009C5D00202DE9F04F10F0070A85B0054663
:10DEC00004D040F261111720FFF7A4FB544F044621
:10DED0004FF0010B07F14806B146B04657F8043B36
:10DEE0008DF80BA03BB101A898479DF80A30082B8C
:10DEF00001D9E821E7E79DF80B1081BB05B131603E
:10DF0000B94506F10406E9D12DB30023DFF814E189
:10DF100011221E468EF8003058F82200013A60B1F6
:10DF200090F804A08178BAF1FF0F64D14FF0000798
:10DF30008E4207713CBFCEB20123511CECD10BB114
:10DF40008EF80060112640F6FF6A58F82670002F00
:10DF500063D1013EF9D2601B05B0BDE8F08F9DF89A
:10DF60000AC04A1DBCF1020FE64604EB420438BF6A
:10DF70004FF0020E53000EF1FF300444CEF10000CA
:10DF80002040BDF808406444CCF1000C013C04EA98
:10DF90000C04B4F5803F01D3F82194E775B1C31A9E
:10DFA000336099701C8083F803B09DF80C201A71BF
:10DFB000019A4FEA124C1A81A3F806C004FB01042F
:10DFC0009EE758F82C90B9F1000F06D099F804B0EC
:10DFD000D34504BF99F802904F440CF1FF3CBCF1CB
:10DFE000000FEEDA3944FF29A2D90BB18EF8006098
:10DFF00040F2271167E794460027F0E707EB41035B
:10E0000009F101093846A3F80AA0FFF71BFF5FFAE0
:10E0100089F1BB788B42F1D89BE74FF00009F6E716
:10E02000A05D00209C5D0020F8B54FF6FF7305460B
:10E030000380184B03EB8103D86CB8B18678037961
:10E04000B3FBF6F206FB1233DBB219460A1D00EBF6
:10E050004202B2F902705488002F09DB0131B1FB92
:10E06000F6F206FB1211C9B28B42EFD10020F8BDC7
:10E07000FF29FBD0C4F30E03C4782B8024B94FF4DE
:10E08000D5711720FFF7C6FA5380BDE8F8400BF0B2
:10E09000F1BC00BF9C5D00201D4B03EB810370B5FC
:10E0A000DC6C054644B3030404D54FF4DC7117203F
:10E0B000FFF7B0FA014620460BF0BFFCFF280146EF
:10E0C00004D02046BDE870400BF0D4BCA078B5FB6E
:10E0D000F0F300FB1353DBB219460A1D04EB4206B2
:10E0E000B6F90260002E09DB0131B1FBF0F200FB52
:10E0F0001211C9B28B42F0D1002070BDFF29FBD0B4
:10E100008B4204EB42021CBF0023E3705580D8E72A
:10E110009C5D0020094B03EB8103014610B5DC6CCC
:10E1200020460BF08AFCFF28014604D02046BDE8BB
:10E1300010400BF09FBC002010BD00BF9C5D002074
:10E14000F8B5104B074603EB81030146DC6C204613
:10E150000BF073FCFF28054611D0E688238953EAAB
:10E16000064606D0014620460BF084FC01463846A0
:10E17000B04720462946FFF765FE0020F8BD052080
:10E18000FCE700BF9C5D002038B50E4B0446827949
:10E1900003EB8203D86C08B9052038BD8278E17999
:10E1A0009142F9D24B1CE37100EB41035D89B3F955
:10E1B0000A30002BF3DBA5800BF05CFC2060002014
:10E1C000EBE700BF9C5D002008B50E4B03EB81031D
:10E1D000DA6C22B940F226211720FFF71BFA91785A
:10E1E000831A481DA3EB40031088B3FBF0F3002B08
:10E1F00001DB994202DC40F22921EDE702EB430307
:10E20000588908BD9C5D002070B5044610F00300DD
:10E210000E4603D04F211820FFF7FCF9FFF7F2FD5F
:10E22000054624B1034831460460FFF7EBFD28465C
:10E2300070BD00BF305E00202DE9F14FDFF870B0F7
:10E240001E4607460D46DBF8003090469DF828A094
:10E250009DF82C901BB961211820FFF7DBF952467D
:10E26000092140460BF070FA4A4684B20921304633
:10E270000BF06AFA81B2DBF8000021440BF0B2FB2C
:10E28000386018B9286001B0BDE8F08F04445346E7
:10E29000414609222C6038680BF00FFA4B460922E0
:10E2A0003146286801B0BDE8F04F0BF006BA00BF58
:10E2B000305E002070B50E4604460BF058FA054655
:10E2C00030460BF054FA044B2A1821461868BDE872
:10E2D00070400BF0ABBB00BF305E0020014B1868F4
:10E2E0000BF074BB305E00201F2AF8B504461346BD
:10E2F0000ED89200033222F00303B3F5803F2DD2F3
:10E30000184DACB1A00710D05F210920FFF782F9AA
:10E31000FF2B4FEA420204D9FF339A42A8BF1A46A4
:10E32000E8E77C2AB8BF7C22E4E729706C602B8187
:10E3300022F0030228230127120403FB01F06B687B
:10E340000025120CEEB28E4200D3F8BD14B126188F
:10E350001F705E60104401352833F3E74FF0FF3043
:10E36000F3E700BF345E0020144A002138B553683B
:10E370001478C8B2844203D8AB210920FFF74AF9C8
:10E380001846013128330578002DF2D00021817024
:10E39000012412898161051D44709208C16100F158
:10E3A0002001446821F8022B994245F8044B14449B
:10E3B000F8D100234361037038BD00BF345E0020F4
:10E3C0000A4B1B89B3F5FF7F4FEA930006D25A0828
:10E3D0009B1A9BB2984238BF18467047B3F5EE6F50
:10E3E00001D8FF22F4E740F27263F3E7345E0020C5
:10E3F0002DE9F8434B7880460C4602F0040602F003
:10E40000FB07D3B1DFB12E4BD4F804901D89B7BB05
:10E410000123AD084A46211D637004F1280004F170
:10E420002003A761E76123F8025B984241F8042BBF
:10E430002A44F8D10023636101E0002FE3D0FF23D9
:10E44000A370002E18BF0226A3191B7D032B03D136
:10E45000022F1CBF0136F6B2A31901221A7506F16C
:10E460000C02002304EB860624F812307268A370B5
:10E470004046C8F80020A8F80430BDE8F883002121
:10E4800014226170A0180FF05AFBB5F5FF7F0FD270
:10E490006B08ED1AADB209EB0502C4F804902584AF
:10E4A000A2606384C4F80C90A5842261E384C6E76B
:10E4B000B5F5EE6F4FF0FF03EBD940F27265EAE776
:10E4C000345E00202DE9F84305460C46F72005216F
:10E4D00091460BF039F9061E22DB1DB906FB04F04C
:10E4E000BDE8F88315F0030703D098211920FFF742
:10E4F00091F8DFF83480C8F81050A5B2A8F814607D
:10E50000BBB29D42EAD9B8F814C04B46D8F8100007
:10E510000522F72107FB0C0001370BF0CEF8EFE7DF
:10E520004FF0FF30DCE700BF485E002007B5CDE9C3
:10E5300000230B4603490246081D0BF0D4FB03B031
:10E540005DF804FB605E002013B5064CCDE90023A6
:10E550000B46024604F1080104F10C000BF0C3FB6A
:10E5600002B010BD605E0020124B01224FF0FF3060
:10E5700000211B685A60C3F80803C3F80015C3F8EC
:10E5800004250D4B1B685A6040F6FE72C3F8080361
:10E590004020C3F80015094B0949C3F80825C1F804
:10E5A0008800BFF34F8FBFF36F8FC1F88801C3F8A6
:10E5B00008257047086D0020046D002000200850D9
:10E5C00000E100E00A460648382302F8033BC3682E
:10E5D000C1F803300369536043699360704700BF1B
:10E5E000705E0020024B5A8C02435A845B6A1847C3
:10E5F000705E0020014B00215B6A1847705E0020AE
:10E6000010B5154C07F00AFB06F024FE208DFFF72D
:10E61000F1FF237E63B12246104904F1190052F83C
:10E620000C3BE36063685360A36893600DF0D0FC1B
:10E630000B4B228D93E8030004F024F9236B188818
:10E6400004F04AF8A36B94F8341094F83500984716
:10E65000002384F83C3010BD705E0020C5E500004A
:10E660009C5E0020034B93F83C300BB1FFF7C8BF12
:10E67000704700BF705E002070B5224C0646636C88
:10E68000256B236495F8A43094F848000BB104304E
:10E69000C0B295F87D102EB9FF2803D195F87C30D3
:10E6A0008B4201D007F02EF995F8A43023B3E06C2B
:10E6B00007F096FB94F82C30E16C003B206C18BFFF
:10E6C000012384F87030D5E94223C4E9182306F009
:10E6D000DBFC46B995F87D30033B012B94BF282025
:10E6E000002007F0BBFB95F87C10002007F016FC1B
:10E6F000022384F83C3070BD206C07F071FB06F0FB
:10E70000A9FDE6E7705E00200138C0B2032808B515
:10E7100004D940F22B410620FEF77CFF014B185C28
:10E7200008BD00BFD02D070008B5094B93F83C2069
:10E73000022A04D040F253212720FEF76BFFDA7A39
:10E7400042F00102DA72BDE80840FFF759BF00BF8E
:10E75000705E002010B50E4CA26F137803F0030317
:10E76000032B04D1D378022B01D1002010BDE06F20
:10E770000BF08FF80028F9D1A36F1B7803F0030387
:10E78000032BF2D002F0E6FA80F00100C0B2EDE710
:10E79000705E002038B51E4C0546D4F8803098478E
:10E7A00008B9012038BD94F83430002BF9D194F821
:10E7B0002C301BB9012D03D00020F3E7002DFBD135
:10E7C00094F88430DD06C3F3001001D5FFF7C2FFD3
:10E7D000636CD4F888201B78C3F300132AB9B4F80B
:10E7E0008C2013B1B2FA82F35B0994F82C10628C7E
:10E7F00039B1910705D5A36FD878023818BF012029
:10E80000D0E7002ACDD10028D6D183F00100C9E796
:10E81000705E00202DE9F341324C06460F4694F815
:10E820003C30256B012B5FFA83F804D040F2A44101
:10E830002720FEF7EFFE95F8943053B10021042015
:10E8400085F89410FFF7CEFE94F82C300BB185F8C4
:10E850009680A16F0B7803F00303032B05D195F885
:10E860009A3013B90220FFF7BDFEA26F137803F0B0
:10E870000303032B02D053782BBB012385F89A3076
:10E8800095F8A430CBB194F82C30226B003B94F86F
:10E890004880D5E9420118BF0123C4E9180192F864
:10E8A0007D0084F87030FFF72FFF002203460E49E9
:10E8B00002200092424606F07FFB36B102B0BDE86E
:10E8C000F041FFF79DBE0223D8E7002FF6D0304677
:10E8D000FFF760FF0028F1D102B0BDE8F041FFF77B
:10E8E000CBBE00BF705E0020C05E002037B5684C14
:10E8F0000023256B8DF8053095F8A42094F8483056
:10E900000AB10433DBB295F87C1028B9FF2B03D190
:10E9100095F87D308B4202D0FF2006F0F3FF95F88A
:10E920009A30032B00F2AB80DFE803F0023B899CB6
:10E9300094F88E305748ADF80630A5F86C3002F0E8
:10E94000DFF980B1A16F4FF48070FFF74BFE01211A
:10E95000A36F85F89510DB781B2B1ED105F11000F5
:10E9600007F000F819E00DF105020DF10601E06F66
:10E970000AF025FFA067A0B195F8E1308BB99DF8AA
:10E9800005302BB9038001218370A06F0DF0D7F9FA
:10E99000BDF80610A06F0DF0C2FA012384F88F3085
:10E9A00001E03D4BA36795F89B30A16FDB0003F0BE
:10E9B00008020B7803F0F303134395F89C209200B0
:10E9C00002F00402134323F010030B70FFF7C2FEA2
:10E9D0000028A06F14BF1023002302781343037094
:10E9E00095F8A330002B4DD04378002B4AD0E06C33
:10E9F00007F0F6F994F82C30A16FB3FA83F3E06CCA
:10EA00005B0984F87030D5E94023C4E9182306F087
:10EA10003BFBA06F0BF09FF995F87D10012007F0EC
:10EA20007DFAA26F0123118884F8E030A4F88410E5
:10EA300091781A4A84F83C30917003B030BDB5F833
:10EA40006C300DF105020DF10601E06FADF80630F6
:10EA50000AF0B5FEA06700289FD140F2F3212720DD
:10EA6000FEF7D8FD0B4802F04BF910B940F2FD213A
:10EA7000F5E7A36FDB781B2B8FD101216EE740F206
:10EA80000B31ECE707F0ACF906F0E4FBC1E700BF9F
:10EA9000705E0020E85E0020005F0020F45E002031
:10EAA000064B10B593F83C2002F0FF0422B91C7607
:10EAB00003F0E0FE204610BD0C24FBE7705E002052
:10EAC0000A4B0B4A70B506460D461A60FFF7E8FF81
:10EAD00018B1E1212720FEF79DFD064C012104F12C
:10EAE00090000DF02CF96664E56470BD784100205B
:10EAF00068410020705E0020024B012283F8E12073
:10EB0000704700BF705E00202DE9FF41B14D02AE9D
:10EB10000A9F86E8030095F83C1001F0FF0411B944
:10EB20000AB103B127B940F26F112720FEF772FD39
:10EB300096E8030005F12C0C85F8E14085F8344097
:10EB400085F8E24085F8354085F8E04085F88F404B
:10EB50006C842C856A62C5F88030AF638CE8030052
:10EB60002C6B06F021FF06F075FB94F9800006F08F
:10EB70008FFFA06B07F018F9206A06F08FFF94F85A
:10EB8000B40006F0B1FF95F82C60E26941F64B53F2
:10EB9000002E40F0CB809A4200F2B7804D2006F064
:10EBA00041FE304607F006F86E2194F87C200020E4
:10EBB00007F020F8884B186807F0FCF86369EB67EA
:10EBC000A369C5F8E43094F88B307BB9D4F884207D
:10EBD00062B1B4F8CE10B4F898308B4206D1B4F8D4
:10EBE00088100B44A4F8CE300123136004F5887319
:10EBF0007A4E04F590771868083353F8041C3246AF
:10EC0000BB4203C21646F6D15968D4F820012B6BDB
:10EC1000734A03C293F89E2093F87C00A2F1260168
:10EC2000012904D993F89F10262940F0948095F883
:10EC30002C20002A40F08C8093F84A120BF07BF8CD
:10EC4000064604F14407314638460DF02AFA3146AB
:10EC50000CF0B5FDB4F8503094F87D10834228BF15
:10EC60000346384685F88E300DF0E8F994F87D10AB
:10EC700094F8A4600429B4F8588008BF03210CF06C
:10EC80009EFD0EB9043080B2404528BF40465FFA71
:10EC900080F885F8E88002F083FF20B1B8F1490FD1
:10ECA00038BF4FF0490895F82C6085F84880002E51
:10ECB00076D194F8A3308BB1012394F87C0085F8C9
:10ECC0007030D4E94023C5E91823FFF71DFDFB226E
:10ECD000034642490420009606F06EF90120FFF732
:10ECE00005FE00232B606B60AB60B4F898306B803E
:10ECF00023882B8094F8B4302B71D4F88C300BB16E
:10ED000001221A6004B0BDE8F081962006F08AFD69
:10ED100094F87C20334B03EB820359684FF47A73E9
:10ED200001F5FA71B1FBF3F16E313EE79A420AD870
:10ED30004D2006F077FD012006F03CFF9B2194F862
:10ED40007D20012034E7962006F06CFDC421F6E713
:10ED500093F8D61272E7213A012A0FD824290FD04E
:10ED600095F82C20BAB193F84E315A0711D413F00C
:10ED700001017FF463AF03F002015FE724290AD1A8
:10ED800095F82C203AB193F84E2193F87530134042
:10ED9000EBE7042152E7032814BF0646042650E798
:10EDA00094F8A43093B1012394F87D00D4E942672C
:10EDB00085F87030C5E91867FFF7A6FC0022034606
:10EDC000064900920220424606F0F6F80120FFF7BD
:10EDD00053FC86E7705E002078410020C05E002072
:10EDE000D85E0020D02D070008B5114B93F83C20C9
:10EDF0001AB9BDE80840FFF703BC93F82C2042B9CC
:10EE000093F83C30012B12D040F231212720FEF73D
:10EE100001FC93F83C20022A02D040F23521F5E7AC
:10EE20001B6BD3F81802BDE8084006F0EBBF08BD25
:10EE3000705E0020014B1876704700BF705E0020A6
:10EE4000014B93F8E0007047705E0020044B93F88C
:10EE50008F201AB9188DC0F3003070470120704719
:10EE6000705E0020024B188DC0F3C020704700BFB9
:10EE7000705E0020014B93F8E2007047705E002046
:10EE80002DE9F34182071E4D06460F462C6B22D515
:10EE9000D5F8883023B940F295412720FEF7BAFB18
:10EEA000B5F88C201846296C033291F801800EF0D9
:10EEB0001BFE0DF1020201A92864D5F8E4000AF056
:10EEC0007BFD01980AF062FD012238604146D5F8C9
:10EED000E4000AF028FDF3070ED5D4E942320133ED
:10EEE00042F10002C4E9423294F89C30012B0CBF7D
:10EEF0000023012384F89C3002B0BDE8F08100BFFC
:10EF0000705E00202DE9FF47B54C002380468946FE
:10EF1000276BCDE9023394F83C30022B04D04FF438
:10EF2000A3612720FEF776FB238D590606D44020E7
:10EF3000FFF760FB238D43F04003238597F8A4304F
:10EF4000B8F1000F00F05281B3B106F0ADF906F050
:10EF50008FF988B9236C5A7872B11B7897F89C2086
:10EF6000C3F3C0039A4207D1012384F83530FFF779
:10EF700047FB04B0BDE8F087236C5978A4F88C10E7
:10EF800009B3D4F8E4000AF0A5FCC4F88800238D86
:10EF900097F89B2043F400732385236C1B78C3F3FD
:10EFA00080039A4200F0C280256B95F89A30002BBE
:10EFB00040D0022B11D102A9E06F0AF022FC28B93F
:10EFC00040F20E41ADE7C4F88810E0E7D5E94032E1
:10EFD000013342F10002C5E94032002194F82C309F
:10EFE00085F89A103BB195F8963023B1102085F83A
:10EFF0009610FFF7F7FA95F895309BB1002685F843
:10F00000956001F08FFE10B940F2254189E7314645
:10F010000820FFF7E7FAD5E94032013342F1000258
:10F02000C5E9403295F89B30012B0CBF002301232A
:10F0300085F89B30238D4FF0000A43F4006323854D
:10F04000216C97F89C200D78C5F3C0039A426FD0CD
:10F050000025206C0AF07FFE97F8A330B3B194F836
:10F060002C3097F87C00B3FA83F35B0984F8703096
:10F07000D7E94023C4E91823FFF746FB00220346E3
:10F08000584900920420FB2205F096FFB9F1000FC9
:10F0900000F0C380012606F067FF1DB103A902201E
:10F0A000FFF7EEFEBAF1000F10D094F82C3043B108
:10F0B000B4F80720B4F805301343B7F89820134389
:10F0C00004D0B4F809300133A4F80930B8F1000FC6
:10F0D00000F0BD80B4F805300133A4F805300023FA
:10F0E00084F8E230404803F0E5FA029830B10AF0C3
:10F0F0004DFC216B0022027202F0AEFC039B33B187
:10F10000216B00221A720C22039802F073FC002E6D
:10F110007FF42DAF238D1B063FF52BAF8020FFF72B
:10F1200069FA238D43F08003238522E7C24687E7EF
:10F1300005F00305266B032D14D0F5B996F89C3025
:10F14000013B18BF012386F89C30236C5B78002BB1
:10F150003FF47FAFD6E94232013342F10002C6E903
:10F16000423276E7238D0120002543F4805386F850
:10F1700094002385FFF736FAE0E74D78002DDDD0C7
:10F18000238D96F8A45043F48053238506F064FB46
:10F19000042894F8E83006D1002D14BF1B221F224A
:10F1A000934228BF1346226C52789A420BD8D4F867
:10F1B0008830002B3FF44CAF94F8E1306BB1202045
:10F1C000FFF718FA44E794F83430012043F01003B5
:10F1D00084F8343007F012FE3AE74546AEE700BF48
:10F1E000705E0020C05E00209C5E00200BB106F027
:10F1F00069F894F8E230013384F8E230238D43F467
:10F200008063238597F87D30033B012B02D80120D2
:10F2100007F0F4FD0025AA461EE794F82C2094F888
:10F22000E2303AB1628C120704D5A26FD278022A7A
:10F230003FF430AF012B3FF62DAF0120FFF7AAFAC4
:10F24000064600287FF426AFFFF750FB25E7B4F809
:10F2500007300133A4F8073044E700BF2DE9F04F31
:10F2600004468BB01E4600230D461746069390F8C1
:10F270007D800BF09EFF94F806320B2B04D940F2F0
:10F28000C1310620FEF7C6F9C64A32F813B094F829
:10F290009F308344039387F001031FFA8BFB049391
:10F2A000A7BB94F84432032B30D1039B0E2B2DD1F6
:10F2B000B4F8D432AB4229D1D4F84C322046B4F859
:10F2C0001C22C4F83832E369C4F83C32B4F89232F4
:10F2D0001344C4F8403205F03DFDE269D4F8DC3255
:10F2E0009A4203D004F128000DF07EFFD4F8D83202
:10F2F000E363B4F8D632A4F84030D4F8DC32E361EA
:10F30000D4F8E0326362022384F84432B4F890A265
:10F3100004F51873B4F89890A5EB0A0A0593A5EBC9
:10F3200009090FFA8AF30FFA89F9002B17DAD4E9E1
:10F330009E23C4E9A2230023012284F85B324B46BA
:10F3400094F844A2984F5FFA8AFABAF1030F00F2D8
:10F35000CE81DFE81AF006002B0163004B01324634
:10F36000EEE794F87D1094F816020CF04FFA804600
:10F37000E06B594640440DF0BDFF5946C4F84802C1
:10F38000E0690DF0B7FFE26941F64B5307A99A42D5
:10F3900098BF4FF0020A5044C4F84C0208A806F087
:10F3A000EBFD079BD4E9A2010093DDE908230EF0F1
:10F3B00073FA814620460AF0F3FCD4F8943294F8AC
:10F3C0007D00D4F83CA0069306F008FF069B00F5EC
:10F3D0002240D4F84812BB3BB1309A444FF47A73C0
:10F3E000AAEB010A3031B0FBF3F0D044B4F840305E
:10F3F000A8EB090803EB4101A8EB0000069094F884
:10F400007D000AF0D9FCD4F89422069B38609B1A40
:10F41000CC2B68D840F2C641302033E7E36B594625
:10F42000D4F83C0218440DF065FF5946C4F8480270
:10F43000E0690DF05FFF41F64B53E2699A4288BFE5
:10F440004FF0000A5044C4F84C0220460AF0A8FCD1
:10F45000B4F81C32D4F83C80D4F83CA2002B40F025
:10F460009A80002E00F09780D04494F87D0006F03A
:10F47000B5FED4F84832A8F1BB0800F5224994F84B
:10F480007D004FF47A7BA8EB0308D4F8803209F1B1
:10F49000B1099844C31ED4E99E12012BA8EB0108C0
:10F4A000B9FBFBF974D906F099FE00F2E730B0FB26
:10F4B000FBFBA8EB090808EB0B000690D4F84812F8
:10F4C000D4F83832D4F84022303194F87D0002FB71
:10F4D0000311B4F8403003EB41010AF06DFC012345
:10F4E000386084F84432E3694FF00008D4F84C22C5
:10F4F00004F14400A3F5A2733F6806999B1A84F8AF
:10F5000060829F4228BF1F46D4E9A232C4F8187215
:10F510005B1842F10002C4E99C320CF08DFD0744F7
:10F52000A4F89052C4F86472D4E99C23C4E9A223DD
:10F5300004F012FE20B1D4F864321E33C4F86432F1
:10F54000B4F8081284F868824D1B2DB2002DC4BF98
:10F55000022384F86832039B0E2B00F0CB80002E30
:10F5600040F0C98094F84432002B00F0E180E1695A
:10F5700004F51870D4F84C32C91A0CF0EFF880B2C8
:10F58000002800F0D580149B03B118800120DFE033
:10F590004FF03E0B8DE7D044D4F84832A8EB03037C
:10F5A00006938BE7E82D07005C5F0020D4F84C221F
:10F5B000E169D4F83802891A4B43D4F84012069313
:10F5C000B4F81C329944CB439944D4F848323033D0
:10F5D00000FB0133B4F8401094F87D0002FB0933BE
:10F5E00001EB43010AF0E8FB38607CE7E06958432F
:10F5F00006905EB3B4F81C1241BB84F85B12D4F8D9
:10F600004C1201FB130A94F89E30262BCDF818A05B
:10F6100003D094F89F30262B09D1B4F8D432EB1ADA
:10F620001B0404D494F8D732002B18BF9846002A44
:10F630003AD0B4F81C32BBBBD4E99E23D4E9A00174
:10F6400082428B4108D340F21A51E5E694F85B12EE
:10F6500000297FF448AFD2E794F87D00C31E012B48
:10F6600040D906F0BBFD00F522404FF47A7BB13063
:10F67000B0FBFBF000F1AB0BD4F8803294F87D00C6
:10F68000103BD4E99E125A1AC31E012B92442CD966
:10F6900006F0A4FD4FF47A7300F2E730B0FBF3F00C
:10F6A000AAEB0B0A50440690B4F81C124046894459
:10F6B000D4F84C1201FB09F909F130094FEA490964
:10F6C00049460AF079FB244A41F64B531060E06941
:10F6D00098423FF608AF06AB49460CF0B4F884F800
:10F6E0005B0200E74FF4897BC6E73E20D8E740F293
:10F6F000325191E6E6B1B4F8301219B3B4F83222BF
:10F7000094F83432501CA4F8322202FB033399429D
:10F710000EDD94F868325BB10023A4F8320284F85D
:10F72000683202F043FA00F00700013084F8340236
:10F7300004F5187194F85C0208F0FEF920B940F263
:10F740007B5169E60A46DBE7049B84F858320020C7
:10F750000BB0BDE8F08F00BF5C5F0020F0B5044641
:10F7600085B018B9A6213020FDF754FF072900F213
:10F770000B81DFE811F008003E003E00390009016E
:10F78000F500FD00070190F858321BB3B0F856326F
:10F79000B0F89820934217D1B0F80C22D31AA0F8F1
:10F7A0009820A0F80E322046D4E99C23C4E99E2379
:10F7B00005F0BEF994F81332002B00F09F8005B0DD
:10F7C000BDE8F0400DF0B5BC9A1AA0F80E22A4F8DE
:10F7D0009830E8E7B0F85432B0F898209B1AA0F8B7
:10F7E0000E32B0F85432F2E705B0BDE8F04006F052
:10F7F000CFBB0DF0E1FFD4E99E23801A61EB03013A
:10F80000012871F1000302DA40F20661ABE76FF004
:10F81000010383424FF000038B4102DA40F207619B
:10F82000A1E7E3690BB1B0FBF3F394F89F10B4F8D0
:10F8300056220E2942D10132A4F85622B4F892324F
:10F8400002AEB4F898500133504FA4F89232B4F895
:10F85000D4301D44B4F8D230013DED1AADB23B684E
:10F860005BB1B4F8561200222046013989B298479C
:10F87000B4F856321844A4F85602B4F856126B1A6B
:10F8800018043DD40023204600961A46FFF7E6FCF4
:10F8900088B301282CD1B4F85622B4F80812BDF868
:10F8A00008301344521A12049BB204D5EA1A12F417
:10F8B000004F18BF0B46A4F85632D0E7B4F89810A2
:10F8C0000B449BB2D11A0D0454BF531C01339BB29D
:10F8D000A4F8563294F85932002BAFD1B4F80C3258
:10F8E000B4F85622934204BF0133A4F85632A5E778
:10F8F00040F2546137E7D4F88430F3B905B0F0BD75
:10F9000094F8A23030460394002B0CBF3E2308230A
:10F9100084F8C13001238DF8083002F073FC2046D2
:10F920000DF009FC002394F85C0284F8443208F0DE
:10F9300089F8202384F85C32E0E7B4F8CE20B4F8EC
:10F9400056329B1A1BB2002BD8DDB4F888100B443A
:10F95000013BB3FBF1F303FB0123A4F8CE30CDE769
:10F96000012007F04BFA05B0BDE8F0400AF003BAF9
:10F9700090F84432042B01D0C521F4E6002380F82E
:10F980004432BBE7CB21EEE6CF21ECE684410020F8
:10F990002DE9F04104460E46154690F8403103F03B
:10F9A000FF071BB10C273846BDE8F08101464C48E3
:10F9B00008F02AF820288046F4D05822394604F569
:10F9C0008C700EF0BCF884F81881C4F81C61FF2319
:10F9D00084F8403136B102F001F900F0070001303F
:10F9E00086F8340202234FF00008A4F8503184F85E
:10F9F00048810DF089FC00F1490620460DF0CBF955
:10FA00000146B6B2D8B30BF0D4FB00F5CD61284661
:10FA100089B20DF06FFC2844C4F84C010DF0CCFE07
:10FA200030184FF00106A4F8268041F1000184F857
:10FA30002061C4E9560120460DF0C3F9D0B1A5F507
:10FA40009465314620460DF025F92D1AC4F824514D
:10FA50004FF0FF326FF00043C4E9582304F5A4715E
:10FA600094F8180108F068F870BB40F2C11130201A
:10FA7000FDF7D0FD3046A43D0DF06DFAE5E72046D8
:10FA8000DFF860800DF006F9A430C4F84C01B8F836
:10FA9000040048B1E08C38B102F0A0F8B8F80430A6
:10FAA000B0FBF3F202FB130006440DF085FE36189E
:10FAB00041F10001C4E95661002DC9D0AE1941F1F0
:10FAC0000001C4E95861C9E7D4E956230021204662
:10FAD000C4E94C23C4E94E230DF0A0F963E700BF4D
:10FAE000879E01005C5F0020F0B5002385B0CDE962
:10FAF000003303238DF806306846FEF745FB88B1D6
:10FB00001D4E01230027B3710223CDE902778DF842
:10FB10000E3002A8FEF738FB0546A8B10023B371EA
:10FB200005B0F0BD00980AF094FAE5E790F85C02A1
:10FB300008F01EFB94F85C0284F8445207F082FF40
:10FB4000202384F85C32DFE7029B002BE1D093F89E
:10FB50005C22202ADDD018884FF6FF739842DDD052
:10FB60000221FEF7D7FA04460028DFD140F22B111C
:10FB70003020FDF74FFD00BF5C5F0020044B0022EA
:10FB8000DA719A7142F210729A80FFF7ADBF00BF2E
:10FB90005C5F0020014BD871704700BF5C5F0020A4
:10FBA00010B5044605F05EFE074B9A68824208D302
:10FBB000E16941F64B52914203D9987980F00100F6
:10FBC00010BD0020FCE700BF5C5F0020F0B50446DC
:10FBD00085B090F8133203F0FF05002B6ED190F83A
:10FBE0004432032B6AD10DF0E7FDD4E99E23801A3D
:10FBF00061EB0301012871F100035FDB6FF001038A
:10FC0000834275EB010304DA40F2AF513020FDF777
:10FC100001FDE269B4F898300AB1B0FBF2F20133A9
:10FC200013449BB2A4F85432B4F80C32B4F8542202
:10FC30009B1A1BB2002B41DD94F85C0208F082F89D
:10FC400000283BD0FF2384F85932B4F8D4300DF1AA
:10FC50000E07B4F898501A4E1D44B4F8D230013D46
:10FC6000ED1AADB2336863B1B4F8541200222046E5
:10FC7000013989B29847B4F85432184480B2A4F8D4
:10FC80005402B4F85432EB1A1B0417D4B4F85412CB
:10FC900000230122204689B20097FFF7DFFA68B1FE
:10FCA000012808D1B4F85432BDF80E2013449BB299
:10FCB000A4F85432D6E740F2F651A7E705B0F0BDFC
:10FCC000844100202DE9B343044606297FD8DFE8AC
:10FCD00001F0042815252C3179003E4B9B7903F067
:10FCE000FF025BB900920123B0F80C12FFF7B6FADD
:10FCF00038B140F2CA613020FDF78CFC042384F84F
:10FD0000443205F0E7FF07F081FD0023B4F89820A6
:10FD1000A4F89232A4F8562284F8593202B0BDE811
:10FD2000B083032380F84432F8E705F0BBFDC4E953
:10FD3000A001F3E7284B1B6803B1984794F87D3086
:10FD4000E569033BDFF88C90012BD4F84C3294BF6B
:10FD50004FF028084FF000089D4208F5807888BFD2
:10FD6000ED1A99F8073098BF00251BB9636C9D42C6
:10FD700028BF1D46D4F8187204F144000CF05CF959
:10FD80000744022008F048F90221ED1B25EAE57539
:10FD9000854228BF0546284608F084F900B92F445B
:10FDA0004246394620460CF0D1F9D4F81832C9F849
:10FDB0000800E069184408F001F90028AED140F2CB
:10FDC000793198E702B0BDE8B04309F0E9BF40F2ED
:10FDD000657190E75C5F00207C410020012A70B5CE
:10FDE00005460C46164615D0022A18D042BB05F02F
:10FDF00039FD3246014620460AF0FBF82A461249F0
:10FE000094F8180106F0EAFF40B94FF4EF61302092
:10FE1000FDF700FC05F026FDC5F8940270BDD0F892
:10FE20009412012220460AF0E4F82A46064994F882
:10FE3000180106F0D3FF0028F0D140F28971E6E7FF
:10FE400040F28F71E3E700BF5DF70000014B98803F
:10FE5000704700BF5C5F0020303270B5054692B23B
:10FE60000C461E4609F03CFE35B1044A00231560DD
:10FE7000147556751471936070BD00BF7C5F0020CF
:10FE8000014B1870704700BF11410020014B5870A2
:10FE9000704700BF985F00200138C0B2032808B542
:10FEA00004D940F217310620FDF7B4FB014B185C72
:10FEB00008BD00BF6C2E07000138C0B2032808B58A
:10FEC00004D940F217310620FDF7A4FB014B185C62
:10FED00008BD00BFF02E07000138C0B2032808B5E6
:10FEE00004D940F217310620FDF794FB014B185C52
:10FEF00008BD00BF642F07000138C0B2032808B551
:10FF000004D940F217310620FDF784FB014B185C41
:10FF100008BD00BFF82F0700431E032B0DD84B1E52
:10FF2000032B0AD8064B01291A7114BF0A2200229A
:10FF30009870597000209A7270476FF015007047E2
:10FF4000E244002010B500880C460E21FEF7E2F8CE
:10FF500090F86C3053B980F86D40FF2380F8B130D1
:10FF600003496430BDE810400CF029B810BD00BF53
:10FF70004DA20100F8B58D1F40F67A4C0746BDF83A
:10FF80002460ADB21046BDF8182065453BD8841FEB
:10FF9000A4B264458CBF002401242546AFBB1D4F8D
:10FFA0003F796FB15CB96FF450654D19062D06D8D5
:10FFB0006FF450640419062C8CBF002401242546DC
:10FFC000FDB1814224D803FB0666B6F5FA7F1FDC3B
:10FFD000A2F10A0340F676449BB2A34218D80AF075
:10FFE00097F942F2107300FB06F15A43B2EB410F4E
:10FFF0000ED9BDF81C50BDF8200085428CBF0025ED
:020000040001F9
:1000000001252846F8BD0024C7E797F88170C8E7A6
:100010000025F6E770600020114BF7B59C7E064680
:10002000DD7E9F8B14B900F0B9FD0446A5B900F040
:10003000B5FD054614B9092003B0F0BD0028FAD07B
:10004000304601A98DF804408DF80550ADF80670D2
:100050000BF0D8FB0020EFE7002CF1D1EBE700BF5D
:100060002465002010B503210020FEF753F8044654
:1000700070B90321FEF710F8044620B940F23D3173
:100080003920FDF7C7FA034B93F950100CF0B8FD77
:10009000204610BD7060002038B50BF0ECFA00254A
:1000A00001F000F81F4C00F087FD0BF069FF01F034
:1000B0005BFA02F06FFB01F07FFA012000F040FDD7
:1000C000194B1A4A29465D831A601B22DD839A80E8
:1000D000F9221D841D76164B22835868154A1B8908
:1000E00022601422E06104F124002384A576A58017
:1000F000A5750DF024FD012342F2107204F13A00BF
:1001000084F8445084F8243084F83930C4E90A2251
:100110000DF070F80022002384F86050C4E9162323
:1001200038BD00BF706000202465002003021B0062
:10013000F02E07001B004801044B41F64C521B21D6
:100140005A611974C3E90222FFF7A6BF2465002093
:1001500073B5384D0446AB6840F8443F09F0B0FF32
:10016000064600F015FD2B7C10F0200FA4F84E6021
:1001700084F84C30304B0EBF1B22AA8869881B685C
:1001800014BFA4F86E10A4F86E20A4F870201BB160
:1001900094F980102088984728490B79003B18BFB4
:1001A000012384F88130264B1B6813B10831208865
:1001B000984794F881302046002B41F64C5318BFE5
:1001C0004FF47A73E361FFF727FF064648B1022137
:1001D0002088FDF7B5FF40B340F2B9513920FDF753
:1001E00019FA184B1B6813B101462088984704F18F
:1001F00028000CF0F9FF6978AB8804F114006A88D4
:1002000001910333297803329BB2009192B204F139
:100210001801FEF711F8636913B940F2CE51DDE71A
:10022000A3691BB940F2CF51D8E70926304602B086
:1002300070BD00BF246500208C410020706000204C
:10024000A04100209C4100202DE9F34105460E46C7
:100250000CF01BFD002800F0AE8028460CF09BFD42
:1002600030B1B6F80130013B7F2B01D9122404E0F4
:1002700028460CF094FD20B90C24204602B0BDE8BD
:10028000F081284609F068FF0028F5D128460CF0D7
:10029000A1FC80460028EFD1284603F0CFF80028C3
:1002A000E4D042F21073B6F80170F17828465F434B
:1002B0000CF05BFD04213078FDF72CFF044606218D
:1002C0003078FDF727FF002C77D038B141F6611167
:1002D0003920FDF79FF9044690F8BD80404E336801
:1002E000002B6CD0403420460CF056FF002866D01E
:1002F00020460CF045FF002861D1B8F1000F08D06E
:10030000384B20461B689847002858D041F6751195
:10031000DEE7354942463368204649699847002858
:100320004DD041F67A11D3E728460CF034FD40B9A0
:1003300002210DF10600FDF777FE064658B90D249F
:100340009BE728460CF039FD0028F1D1274B1B799B
:10035000002BEDD18AE7002101F062F8BDF80630EC
:100360002846314633800CF04AFD28460CF025FD26
:10037000A0B928460CF02BFD01463046FFF7E8FEF9
:10038000044600287FF479AF3A4631462846FFF705
:10039000FFFA044620B141F6A61199E70121ECE7E6
:1003A000124BDB6C002B3FF468AF024606F5A171DF
:1003B0003046984761E742245FE700288BD1284602
:1003C0000CF0E1FC01460028AED13A462846FFF782
:1003D000DFFA044600283FF450AF41F6831177E777
:1003E0009841002094410020246500207060002086
:1003F000F7B5044610460F461E4601F07FF80AF096
:1004000002F80546042C60D8DFE804F003234726F1
:10041000300000F09BFBB8B1B7B9FFF723FE00280E
:1004200051D029460CF0AAFC0021F8B20CF092FE43
:1004300010B129460CF0A2FE002E48D02846002418
:1004400001F04AF830703BE003213846FDF762FEC8
:10045000E5E709F087FEEFE707213846FDF75AFE8A
:100460000028E9D029460CF0A3FEE5E70A2138462A
:10047000FDF750FE0028DFD090F83030032B24D158
:10048000D0F89040002CD7D0A4F58074294620469F
:100490000CF094FED4F80041F4E7694638460BF0BE
:1004A00039F968B90B4B1B681BB9019B83F8805065
:1004B000C2E701222946684698473A280446F4D103
:1004C000204603B0F0BD4224FAE71224F8E7344690
:1004D000F6E700BF90410020034B5A8802801B784A
:1004E00083700020704700BF246500207FB58378AB
:1004F00006461A2B09D8042B05D9012202FA03F368
:10050000314A134205D112251AE0292B01D03B2B89
:10051000F9D13088B0F5706FF5D269460BF0FAF872
:1005200088B9019B93F8402102F0FF05C2B9B27867
:1005300083F84121FF2283F8402168460BF0F9FC43
:10054000284604B070BD09213088FDF7E3FD04465C
:10055000002837D002A9B0F8AC010BF0DBF808B1E5
:100560000C25EDE70821B4F8AE01FDF7D3FD20B965
:1005700040F6E8013920FDF74DF803781BB994F8EF
:10058000C831032BECD1039B93F85621002AE7D105
:1005900094F8F02102F0FF05002AE1D1B4F8B0216F
:1005A000A3F8582194F8B42183F85A21027D83F8E6
:1005B0005B21B27883F85C2184F8F021FF2283F874
:1005C0005621BDE70225BBE72000380438B5047882
:1005D000427804F00103857804F0020452EA030132
:1005E00001D1112038BDBCB9002DFAD0002B08BFB5
:1005F000144601E000242546204609F00EFF00289D
:10060000EFD0284609F009FF0028EAD0054B00206A
:100610009C76DD769883E5E7002BEBD114461D46EA
:10062000EAE700BF2465002013B5008869460BF097
:1006300071F818B10224204602B010BD684609F0D6
:100640008AFF0028F6D0019890F852310BB13A2475
:10065000F1E790F8EC3003F0FF04002BF7D190F8AD
:10066000E3309B0706D1FF2380F8523168460BF038
:1006700060FCE0E70249E4300BF0AAFCDBE700BFD6
:1006800093C601002DE9FF41077804460E46EF2F7F
:1006900004D91226304604B0BDE8F081B0F801302C
:1006A000ADF80C309DF90C209DF80C30002AF0DBE1
:1006B0009DF80D209507ECD1D80660D4990603F07B
:1006C000030259D5002AE4D11D0703D503F06703BF
:1006D000012BDED16378180711D42179E278E07913
:1006E00042EA0122617942EA0142A17941EA00210C
:1006F000207A41EA00418A42CBD81F2AC9D9627ABE
:10070000013A062AC5D8A27A032AC2D813F00401F6
:1007100002D1023A012A03D8E27A012AB9D811B9E2
:10072000A27C032AB5D813F01001227D37D0012A0C
:10073000AFD1237E012BACD8002940D06378D907F4
:1007400003D500F0BFF9002840D06378227D03F084
:100750001803082B4AD1022A38D11FFA87F803213F
:100760004046FDF7D7FC0546002845D009F0F4FCCB
:1007700000284DD00C268DE7032AA5D189E713F078
:10078000600F86D103F00F0203F00703052BA1D001
:10079000931E012B9ED9002A7FF47BAF9AE7022A91
:1007A00004D103F06F03092B7FF473AFA37D013BEA
:1007B000022B3FF66EAFE37D0F2BBAD969E700F04D
:1007C000EDF9820707D4237D022B01D1112661E7C1
:1007D000A37D022BFAD000F0E1F94307AED4237DCC
:1007E000032BF3D0A37D032BA8D1EFE7022AB4D0CB
:1007F000A37E002BB1D0E9E703214046FDF74CFC76
:100800000546002842D0224B93F950100CF0F8F91D
:10081000002138460CF09EFC28BB28460CF0B0FAAC
:1008200021463070E074284602F060FE637E064682
:10083000002B3FF42FAF00287FF42CAF0246E96C69
:100840006846FDF7D5FD3246E86C012109F09DF9B7
:10085000E96C68460422FDF7CBFD32463146E86C70
:1008600009F093F916E740300CF096FC0028D4D03C
:10087000637813F0330F7FF40CAFA77D28460CF09C
:10088000A6FAFFF719FB8742C7D073E7072601E7EF
:100890007060002030B502798BB00346042A58D826
:1008A0004488B4F5804F54D82B4800211044ADF84B
:1008B00004108DF80C10827C457B42F010028DF8FC
:1008C000211042EA4502C57D007F42EA850242EAE4
:1008D000C00202F01F028DF80420BDF80420ADF81C
:1008E0000D201A888DF81240240A8DF80F20120A64
:1008F0008DF811108DF814108DF810208DF813401C
:100900005A7BD3F807008DF815205A79069003A872
:100910008DF816209A798DF81720B3F80B209B7B61
:10092000ADF81C208DF81E307F238DF81F30012379
:100930008DF820308DF822308DF823108DF824109A
:100940008DF825108DF8261001A9FFF79BFE0BB03E
:1009500030BD1220FBE700BFF02E070013B503786F
:10096000044653B1002301A8019305F05DFD019BEE
:100970009B0702D00C2002B010BD22780020014B52
:100980001A71F8E7706000200278034672B142786D
:1009900062B142881A2A09D982881A2A06D90068BF
:1009A000034A106000209B88938070471220704794
:1009B0002465002002680020014B9A60704700BF48
:1009C000246500200378A3F10A02112A9BBF024A82
:1009D000002012201374704724650020014B187604
:1009E0000020704770600020014B5876002070474F
:1009F00070600020024B1B6803B11847112070473C
:100A00008841002008B502F0FBFCFFF7B7F8024868
:100A1000BDE8084002F0DEBCD460002008B50AF052
:100A200028FE064800F58471FEF74AF8022009F016
:100A300029F80020BDE8084009F024B8D46000205F
:100A400008B50122064B83F80A2202F0E1FC03F00C
:100A500075FBFFF7E3FFBDE8084000F0A5BF00BF4E
:100A6000D460002010B5064C064904F503700AF066
:100A700060FB04F504700449BDE810400AF059BB5E
:100A8000D4600020A4410020AC41002010B5094CE6
:100A9000094904F503700AF04CFB04F5047007499A
:100AA0000AF047FB04F505700549BDE810400AF05F
:100AB00040BB00BFD4600020BC410020C4410020E6
:100AC000B4410020014B93F80A027047D460002023
:100AD00038B5094C0D4600F043FFD4F80C02C4F8B9
:100AE00004510AF01EFBFFF727FB01F08FF80123EA
:100AF00084F8183238BD00BFD4600020014B93F851
:100B000018027047D460002010B50C4CD4F81002C5
:100B10000AF007FBD4F814020AF003FBFFF7BCFA53
:100B2000202000F027F82F2000F024F8262000F0E5
:100B300021F8002384F8183210BD00BFD4600020D3
:100B4000014B83F819027047D4600020014B93F8E1
:100B500019027047D4600020C2080549012300F043
:100B6000070003FA00F08B5C18438854704700BFFD
:100B700018410020C208054900F007000123834006
:100B8000885C20EA03008854704700BF18410020A9
:100B9000014BD3E90001704718410020054B18684C
:100BA000C0F3C022C0F30020400040EA820040F0C1
:100BB000010070471841002008B50CF0A3FB00238A
:100BC000074A32F82310814205D302EB83039B7856
:100BD000044A137008BD01330C2BF2D10023F7E750
:100BE000342F0700EE620020024B1878072828BF38
:100BF00007207047EE62002010B54468238884F80F
:100C0000AD11A4F8AE3194F87C00FFF765F984F8D3
:100C1000B00194F87D00FFF75FF9054984F8B10150
:100C200004F5D2700BF0D4F9002384F84C3110BDD8
:100C3000B7B10100406807490388A0F8A03190F8D7
:100C4000743080F8A23190F8753000F29710037379
:100C50000BF0B8B9CDB10100064B002283F850204B
:100C60004FF6FF72A3F85220A3F85420A3F85620A1
:100C7000704700BFF0620020064BB3F8522082425A
:100C800001BF002283F850204FF6FF72A3F85220D4
:100C9000704700BFF0620020014BA3F8540070477A
:100CA000F0620020094A03464FF6FF71B2F8520085
:100CB000884206D192F85010012905D001201A600F
:100CC000704700201860704700207047F0620020D5
:100CD000074B93F85020012A1BBF0120B3F8542082
:100CE000002083F8500018BFA3F85220704700BFBF
:100CF000F0620020014BA3F856007047F06200201C
:100D0000074B0246B3F85610B3F85200884205D19B
:100D100093F8500018B1012013607047002070470D
:100D2000F06200200A4BB3F85210B3F856209142FB
:100D300001D0002070474FF6FF72A3F8522093F8BD
:100D40005020002AF5D00022012083F8502070475F
:100D5000F0620020064BB3F85210B3F856209142CF
:100D600003BF93F85000B0FA80F0400901207047AB
:100D7000F062002050B90A4A0120134603F8010B23
:100D80000868C2F801008A889A807047012805D156
:100D9000034B0A68D8719A608A889A81704700BFAD
:100DA0004863002048B90A4B187880B1D3F8012075
:100DB000B3F805300A608B807047012806D1044BD8
:100DC000D87920B19A689B890A60F4E700207047BF
:100DD0004863002020B9054B187800F001007047E7
:100DE00001280ABF014B0020D879F6E748630020AC
:100DF000F7B58B8800228DF80600ADF8043008683E
:100E00000B4B8DF8072001461C7803F5AC73019D50
:100E1000D0B2844201D8082007E0D3E9007601323D
:100E20000833AE4208BF8F42F2D103B0F0BD00BF1D
:100E300058630020084B0146002230B55C7803F56A
:100E40008173D0B2844201D8082004E013F8015B1A
:100E500001328D42F5D130BD58630020F8B52D4CDC
:100E600063782218013B92F80251DBB2834263702F
:100E700030D01A010101961C8F1C2644274406F12C
:100E8000100C56F804EB664547F804EBF9D18232B2
:100E900082312244214402F1100652F8047BB2420E
:100EA00041F8047BF9D1E118221891F8026182F827
:100EB000026106267343704303F5857300F5857060
:100EC000E618E35827182350B388BB8091F83A31CD
:100ED00082F83A312846FFF7ADFF082818D1237869
:100EE000013BDBB29D42237012D02B3305F12B0264
:100EF00004EBC30304EBC20293E8030082E803009F
:100F00002078FFF797FF08281CBF241884F80251A7
:100F1000F8BD00BF58630020F0B5254D89B095F8A5
:100F2000984105F29911684622460CF0DDFD2146F4
:100F300068460AF0BFFB0446B8B300EB400102A8C4
:100F4000C9B2FCF7B3FD601E95F8A1610124C0B2DF
:100F500095F8982105E0731CB3FBF2F102FB113305
:100F6000DEB206F120030DEB030111F8203C002B4B
:100F7000F1D100EB400201F8204C06EB4603203291
:100F80002B446A4412F8187C83F8A27112F8177C7B
:100F900012F8162C83F8A37183F8A4210138AB1939
:100FA000C0B283F89941FF28D2D109B0F0BD00BF8B
:100FB0005863002070B5064688B00C46002A4FD012
:100FC0002A4A92F8A131D01890F8991121B94FF41A
:100FD00080712820FCF71EFB03EB43010133114411
:100FE00091F8A251E57091F8A35191F8A4112571DF
:100FF0006171002180F8991192F89811B3FBF1F01A
:1010000001FB103382F8A13192F8C23123B918499B
:1010100002F5DD700AF0D9FF65790D2200216846DE
:1010200005F03F0545F0400565710CF088FDE3785B
:1010300004AA69468DF80F30304623798DF80D509B
:101040008DF80E3004230CF093FC9DF81F302370B4
:101050009DF81E3063709DF81D30A37008B070BD00
:1010600003216018FCF722FDD6E700BF586300207B
:10107000190F0100044B5A78824286BF1B1893F85F
:101080004A010020704700BF58630020044B5A7883
:10109000824286BF1B1893F842010020704700BFB0
:1010A00058630020064B00224FF461711A8083F8C8
:1010B000C32183F8C421A3F8C61183F8C221704765
:1010C00058630020014B83F8C40170475863002027
:1010D0002DE9F0478246894617469846FFF788FE75
:1010E00008280546064603D0FFF7A4FE082863D16A
:1010F000334C6378072B61D8082D18D12678731CE0
:10110000072E237003D96B212820FCF783FA06F100
:101110002B03D9F80000DAB204EBC30344F8320021
:1011200004EBC201B9F804208A8083F806A0657830
:1011300007F110026B1C290163704B1C234412F849
:10114000010DBA4203F8010FF9D1813108F1100302
:10115000214413F8012D984501F8012FF9D12544B8
:10116000102140460AF0EEFA102185F84201384677
:101170000AF0E8FA002385F80261667885F84A01EA
:1011800085F83A3131460F480AF094FA054631465F
:101190000D480AF08FFA012D03D8002818BF013539
:1011A000EDB284F898510025284684F8A151FFF744
:1011B000B3FE2846BDE8F0871220FBE70720F9E7D9
:1011C000586300209A640020A2640020064B10B5EA
:1011D0005878013840B2002800DA10BDC4B2204669
:1011E000FFF73CFE601EF5E758630020014B83F8D3
:1011F000C301704758630020014B93F8C301704747
:1012000058630020431E4AF2B7129BB293429DBF1F
:10121000024BA3F8C601012000207047586300204C
:10122000014BB3F8C6017047586300200A4B30B534
:101230005C7884420ED9184490F802012B3003EBFD
:10124000C004A5790D7053F8300010600120A38808
:10125000938030BD0020FCE7586300200246074819
:1012600010B590F8C34124B1417821B1023003F0A8
:10127000CBFD204610BD0C46FBE700BF58630020A5
:101280002DE9F74F2F4C9A46804689466378834272
:1012900056D9231893F8425185F00105F9B193F816
:1012A0004A31E3B945F002070135BAF1000F18D110
:1012B000FA070AD5062104EB0810524601FB084143
:1012C000823001F58571FFF775FEBB0734D504EB5D
:1012D0000810524649460230FFF76CFE2CE02F46BC
:1012E000E3E794F8A1614FF0010B002DE0D0A319C2
:1012F00093F89911019399B90092DAB100F056FC74
:10130000019B06EB4601009A4FEA102C83F899B135
:10131000214481F8A201000C81F8A3C181F8A40145
:10132000013694F89831013DB6FBF3F103FB1166E9
:10133000F6B2DAE747F00407384603B0BDE8F08FAD
:101340000027F9E758630020074B5A78824209D9F1
:101350001A1892F842212AB9062202FB003000F541
:10136000857070470020704758630020064B5A78FC
:10137000824281BF1B1893F83A01B0FA80F040090D
:1013800098BF0020704700BF58630020F8B50E4694
:1013900007460621154630460AF0D4F9044640B106
:1013A0000A482946427800F59D700CF0C8FB20469B
:1013B000F8BD314638460AF099F908281FBF034B9B
:1013C0000124C01880F83A51F1E700BF58630020AB
:1013D00030B5002442F21075A0F84240B0F8464003
:1013E0004C43B4FBF2F4A0F84640541E05FB034303
:1013F000B3FBF2F3A0F84430084BB3FBF2F3013334
:10140000A0F84A30838F05FB0344436B5943B4FB78
:10141000F2F4B1FBF2F28463426330BD005A62021F
:1014200070B504460D4649BB4FF442720CF087FB81
:10143000012384F8F85084F8A6306FF0360384F85E
:10144000F95084F8F330042384F8F4306FF03B0350
:1014500084F8F5306F2384F8F6306FF03F0384F89A
:10146000F7302B2384F8F230FE2384F832317F23C7
:1014700084F89D30202384F85C3270BD012917D197
:101480000023A0F81C3280F813320D4BC2691344BC
:101490001146B3FBF2F3C0F8C83040F6B833A0F8F9
:1014A000CC30C38C04F19000BDE87040FFF790BFD2
:1014B0000229E2D1B0F8E232D0F8DC22C169F1E7CA
:1014C0007FC3C901034B80F880101B680BB10088F3
:1014D00018477047CC410020074B93F9003018445F
:1014E000142804DC10F17F0F03DB40B27047142096
:1014F00070476FF07E00704720650020084B1B7816
:101500005B425BB21844142804DC10F17F0F03DB4C
:1015100040B27047142070476FF07E00704700BFE4
:10152000206500207F2307B50DF107008DF80730F7
:1015300004F0E8FC9DF9073068B10A4A507840424F
:1015400040B21844142808DC10F17F0F07DB40B2CA
:1015500003B05DF804FB1846FAE71420F8E76FF0D3
:101560007E00F5E720650020024B00221A705A70B9
:10157000704700BF20650020054B1B7833B9054B31
:101580001A681B79026003710120704700207047C0
:101590002265002020410020054BFF221A70054AD9
:1015A000016811600179117100221A70704700BF43
:1015B0002265002020410020064B07B518681B79E2
:1015C000009068468DF80430FFF7E6FF03B05DF841
:1015D00004FB00BFF46108000346407848B1DB78A3
:1015E0003A2B05D8034AD35C1B1A5842584170471E
:1015F00001207047682F07003A2908B5C17003D849
:10160000064B5B5C437008BDFF2904D04FF4896131
:101610002A20FBF7FFFF0123F4E700BF682F070034
:101620002DE9F04385B089461446984602A90AF090
:1016300071F8054600283DD1039E34B9012486F88F
:10164000A540204605B0BDE8F083776921463846BD
:1016500008F054F8014678B3194B5B88A3422DD3A8
:1016600001AA384608F08CF996F8A5300198002BAD
:101670000CBF494602210AF062FB0198224641460E
:1016800003300CF031FA2146384608F07CF8044665
:1016900018B97A212B20FBF7BDFF9DF808302BB13C
:1016A00002A80AF046FC039BA3F80A52002386F81E
:1016B000A530C6E70124C4E70446C2E72C46C0E7CC
:1016C00024650020024B987FC04300F00100704762
:1016D0002465002083230B70014B1B78CB7070476F
:1016E000486500207FB505460C4621B94FF48B7143
:1016F0001020FBF78FFF03888B8000234B728669D5
:10170000304608F02FF9014610B940F21F11EFE7FB
:1017100001AA304608F034F9E08010B94FF4927114
:10172000E6E7FB2802D94FF49371E1E701980AF04C
:101730000EFB012801D0022805D12072206828B9AB
:1017400040F23D11D4E74FF49B71D1E70199E28853
:1017500003310CF0C9F9304608F01AF910B94FF40A
:10176000A171C5E70021304608F070F810B940F2C9
:101770004711BDE70A4BDA7F82B11A8C02A928888B
:10178000013A1A8409F0C6FF10B14FF4A871AFE70F
:10179000039AB2F8B6300133A2F8B63004B070BD87
:1017A000246500202DE9F34706460D464FF0050855
:1017B0000027DFF850912B693BB11B7A2BB12C69C4
:1017C0009CB9002002B0BDE8F0876C68237A012B39
:1017D000F7D0EFF3108372B66A6812686A6003B9D3
:1017E00062B6237A002BE6D02C6194F808A05FFA49
:1017F0008AFA84F808800AF1FF330B2B74D8DFE8EB
:1018000003F0700612266D3D4C3D3D3D3D60636822
:1018100023B94FF4EE711020FBF7FCFE3146204651
:10182000984704201BE0636813B940F2E511F2E722
:101830003146204698470346ADF80400C0B2C3F3D2
:101840000723012B53D0022B09D12F6151E063688C
:1018500013B940F2EF11DEE7204698470020EFF37E
:10186000108372B6227A052AD1B201D0002944D160
:1018700027722F61002B3CD162B63AE0D9F80030D4
:10188000002BEBD05246314660689847BAF10A0FF8
:10189000C7D100232B61042094E763680BB9DB21D7
:1018A000B9E70D2200243270012219885869A6F880
:1018B00003102146B2707271B47107F0C7FF2C613A
:1018C000E9E7606810B940F21A21A4E70E4B3146EF
:1018D0001B689847002302202B6173E740F2232105
:1018E00099E740F2262196E740F2292193E7032366
:1018F000237200283FF45FAF64E7002B7FF45BAFF7
:1019000062B658E7D4410020D041002070B5134C96
:1019100014260021231D324618460CF010F9034608
:101920000125257404333246002104F11800C4E96E
:1019300001330CF004F984F8245004F11C03C4E9C9
:1019400006330023E362236384F83430C4F835306F
:10195000C4F8393084F83D3070BD00BF48650020C0
:1019600010B5084C2378FF2B04D04FF4B77110202A
:10197000FBF750FE06F046FE2070BDE81040FFF772
:10198000C5BF00BF2541002010B5034C207806F0EC
:1019900055FEFF23237010BD25410020014B187810
:1019A00006F05CBE25410020014B024A1A607047D8
:1019B000D0410020E516010038B50B4D044605F175
:1019C0001801FFF7EFFE70B9AB681B7A0C2B04D13E
:1019D000064BDA7F0AB11B8C2BB120460449BDE8C7
:1019E0003840FFF7DFBE38BD486500202465002081
:1019F0004C650020134610B5027A22B140F2C9218D
:101A00001020FBF707FE0A4601460248BDE81040D9
:101A10000AF0B8BA4C650020044890F834301BB97D
:101A200003492C300AF0CBBA704700BF486500204C
:101A300077BF01000346064890F83E203AB190F87F
:101A40003D2022B9034900F8353B0AF0B8BA704787
:101A500048650020D51601000A4610B5037A23B167
:101A600040F2D1211020FBF7D5FD014607230248A3
:101A7000BDE810400AF086BA606500201346027A7D
:101A80000AB1037270470A46014601480AF07ABA61
:101A90004C6500201B234FF01B128384038482615A
:101AA0008382C260038541B94FF4A473094AC38499
:101AB0004384C261C382026170474FF429634FF4CB
:101AC000A472C384438403F12963C282C3610361A6
:101AD000704700BF4801480103460846B3F8682034
:101AE000B3F85C10B3F852C08A42F0B493F87D406A
:101AF00028BF0A46B3F86060B3F86A10033CB3F835
:101B00005870B142E4B2B3F8565028BF3146012CA8
:101B1000A3F852208BBFB3F85A604FF429660C46E5
:101B20004FF429649742A3F8564038BF17468E42B7
:101B300038BF0E469445A3F85870A3F85A6026D1D2
:101B40002C1B18BF0124B3F86420B3F85E50B3F81F
:101B500050609542B3F8541028BF154693F87C2086
:101B6000033A012A15D9B3F86220B3F86670BA4275
:101B700028BF3A46AE42A3F85050A3F8542002D1F1
:101B8000914200D144B10549F0BC0AF021BA0124C8
:101B9000D9E74FF42962EDE7F0BC7047D7BF0100E9
:101BA000014B1878704700BF87650020094AD2E9C9
:101BB0000003434083EAB01181EA43214FEAF34333
:101BC00011605360044B58434FEAF06000EB800013
:101BD000704700BF88650020BB79379E094AD2E96B
:101BE0000003434083EAB01181EA43214FEAF34303
:101BF00011605360044B58434FEAF06000EB8000E3
:101C0000704700BF28410020BB79379E10B50A4CB1
:101C100008210948FBF74AFFD4E900231343F7D012
:101C2000064CFFF7DBFF2060FFF7D8FF23686060FA
:101C30000343F6D010BD00BF284100208865002076
:101C4000174B184A9A60184A5A60184A1A60184A7C
:101C50009A62184ADA62184ADA60184A9A61184A8F
:101C60001A63184A1A62184ADA64184A9A64184AB7
:101C70005A62184B184A9A60184A5A62184ADA622D
:101C8000184A1A61184A5A61184A9A61184A1A631E
:101C9000184A9A64184ADA64184A9A63704700BF6F
:101CA000D84100207FC20100B5C201002DC3010050
:101CB00031C40100A3C4010029230100B9C40100FB
:101CC000E525010031240100CBC50100F3C5010069
:101CD000A9240100C4420020A1C2010077C501006F
:101CE000DBC401007FC40100FFC40100D123010057
:101CF000B1C6010051C6010035C601005DC5010035
:101D0000054B064A9A65064A1A66064B064A9A65C4
:101D1000064ADA65704700BFD841002089B3010048
:101D200031B40100C442002051B2010037B60100B5
:101D30003A2A73B505460C463ED83A2A3FD8DFE822
:101D400012F0430084008E009A00B20098009800C0
:101D5000C100C300C90098009800CE00D900C3009C
:101D60003E003E00DD0098009800F800F800FF00FB
:101D7000060112013E003E0031014E015B0161018E
:101D80006701720174017601780183018B01C20140
:101D9000C4013E003E0093013E003E00B401A2019A
:101DA000AC01AE01B001B601BA01B801BE019800A4
:101DB0003E00BC01B201C001FF2A00F0888140F260
:101DC000FE315120FBF726FC416841F64B50D1F81B
:101DD0005832B1F85022834294BF642040F2E2406E
:101DE000B2FBF0F241F64B50D2B283422271D1F8ED
:101DF000542294BF642040F2E240B2FBF0F292B26F
:101E0000A3F57A706271120AA27141F27072904267
:101E1000204695BF4FF47A7240F2E242B3FBF2F3F0
:101E2000B3FBF2F398BF03F550639BB2E3711B0A57
:101E30002372B1F85C3263721B0AA372B1F85E12AE
:101E400002B0BDE8704009F0A6BF43682046D3F851
:101E50004012013102B0BDE8704009F0D0BF0278F5
:101E60004368012A02D193F8343101E093F84131FB
:101E7000237102B070BD4568204605F5217109F057
:101E8000CDFF05F52371204609F0D2FF05F5197144
:101E9000204609F0D3FF05F59071204602B0BDE859
:101EA000704009F0D9BF4168204601F2262109F0AF
:101EB000DBFF6968204601F5927102B0BDE8704011
:101EC00009F0D4BF4368CEE7084602B0BDE87040D1
:101ED00000F03EBB02B0BDE8704000F04BBB0E23EB
:101EE0000B7159234B7100238B716B23CB71302302
:101EF0000B72BEE7436893F82A31B9E70378466866
:101F00007BB996F8343163B196F82D11204609F06B
:101F1000FEFF96F82C11204602B0BDE8704009F093
:101F2000FABF96F82B11204609F0F1FF96F82A1116
:101F3000F1E74168204602B0BDE870400AF087B979
:101F4000436893F84E21227193F84F3109E04368BA
:101F500093F84C21012AF4D093F878200A7193F871
:101F60007930637185E7456895F84B0209F002FA0C
:101F70000146204609F0B6FF95F84A02C31E012B20
:101F800007D895F87C30DA1E012A02D8984218BF8B
:101F9000002009F0EFF90146204602B0BDE870408C
:101FA00009F09CBF45680023204601218DF80430CC
:101FB00009F0D1FE2A7C01A96B7C2046032A03F09C
:101FC0001F0308BF002243EA82139DF8042002F099
:101FD000200213438DF8043009F0C6FE49E7436838
:101FE00011211888FCF796F800F15B01204602B039
:101FF000BDE8704009F04FBF084602B0BDE8704030
:102000000BF0E2B8084602B0BDE870400BF0E4B84F
:10201000344B1B68002B3FF42CAF2946204602B0FE
:10202000BDE870401847304BF3E7304BF1E7304BD9
:10203000EFE7304B1B68002B3FF41BAF0246232019
:1020400002B0BDE8704018472A4B1B68002B3FF4D4
:1020500010AF02462420F3E7264B1B68002B3FF409
:1020600008AF02462520EBE7436811211888FCF7EA
:1020700051F800F17D0200F15B01204602B0BDE89D
:10208000704009F014BF1C4B1B68002B3FF4F1AEED
:10209000204602B0BDE870401847184BF4E7184BD3
:1020A000B7E7184BB5E7184BB3E7184BB1E7184B38
:1020B000AFE7184BADE7184BABE7184BA9E7184B48
:1020C000A7E7184BA5E7184BA3E7184BA1E7436810
:1020D000204693F8CF22D3F8D01202B0BDE870406A
:1020E00009F045BEB4430020B8430020B0430020AF
:1020F000BC430020F0430020F4430020F8430020BC
:10210000C4430020C8430020D8430020DC43002003
:10211000D0430020CC430020D4430020C043002003
:10212000E0430020E4430020EC430020E84300208B
:102130003A289ABF024B53F820000020704700BF96
:10214000D84100203A289ABF024B53F820000020C3
:10215000704700BFC442002030F8023CF7B5044687
:102160000E467BB100238DF804308DF80530002039
:102170009DF8043063F307009DF8053063F30F20EA
:1021800003B0F0BD1B4B30F8B85C1B680BB12838AE
:102190009847194B1B680BB128469847174B1B688B
:1021A0000BB1284698470A230027A6F8035033703E
:1021B000B770637A54F8A00C737107F063FB18B919
:1021C000B2216320FBF726FA2846FEF755FD394673
:1021D0002846FBF7B5FF02212846FBF7B1FF18B9E7
:1021E000074B1B6803B1984704238DF80430002384
:1021F000BBE700BF0044002008440020FC4300204F
:1022000004440020F7B5456804464FF6FF776E6931
:102210000DF102010DF101023046ADF8027007F038
:10222000CEFA01A9304607F0ECFA40B1019807F068
:10223000ADFB616800220272FFF70EFCE8E704497B
:1022400005F1B80003B0BDE8F04009F0BBBE00BF27
:1022500059210100F0B5044685B00D46FF2600F86F
:10226000B56C10F8B63CF3B1174F3B781BB1482161
:102270001F20FBF7CFF90C21381DFBF717FC3E7030
:10228000002304F8B53C09232A4602F8033BD4F89E
:102290000930C5F80330D4F80D305360D4F811304C
:1022A000936005B0F0BD01A80C21FBF7FFFBA4F57E
:1022B000E073039A1A6001AB03CB44F8BE0C44F8F8
:1022C000BA1C04F8B66CDBE79065002010B5054C2D
:1022D00023782BB90C21201DFBF7E8FBFF2323708B
:1022E00010BD00BF90650020024690F82E32BBB9A9
:1022F00090F82F3203F0FF010BB100207047094B1B
:1023000018780028F9D01970D9680433C2F824115C
:1023100003CBC2F82602C2F82A12FF2382F82E321B
:102320000120704790650020426838B592F89F30D0
:1023300004460D463BB1142B05D0123B0B2B94BF2A
:102340000820012038BDD2F8383183BB92F8E23042
:1023500013B9204609F039FF6168284601F21E21B1
:1023600009F073FD6168284601F5907109F078FD68
:10237000616828460B8801F2EF2121F8023C09F040
:1023800052FD6168284601F2F72109F054FD6368A7
:10239000002583F82E5260680C4900F5397009F069
:1023A0000EFE63681622284683F89F20CAE70C2297
:1023B0000321204609F022FF63683222204683F879
:1023C0009F2009F002FF0020BCE700BF552201005A
:1023D00038B54368044693F89F201D2A04D040F284
:1023E000BB111F20FBF716F9002293F8E2101D889D
:1023F00003F5F67083F8E12069B10B4983F8E22018
:10240000A3F8F65183F8F52109F0D9FD636800229D
:1024100083F89F2038BD012283F8F511A3F8F65107
:10242000024983F8F821EFE71DC401000FC4010041
:10243000034610B500785B6820B993F89F202AB155
